:020000040000FA
:100000000C945D000C9485000C9485000C94850084
:100010000C9485000C9485000C9485000C9485004C
:100020000C9485000C9485000C9485000C9485003C
:100030000C9485000C9485000C9485000C9485002C
:100040000C9446030C9485000C9485000C94850058
:100050000C9485000C9485000C9485000C9485000C
:100060000C9485000C94850000000008000201003B
:100070000003040700000000000000000000000072
:10008000250028002B0000000000240027002A0083
:10009000040404040404040402020202020203032E
:1000A0000303030301020408102040800102040836
:1000B00010200102040810201F0511241FBECFEFDD
:1000C000D8E0DEBFCDBF11E0A0E0B1E0E4E5FFE0A5
:1000D00002C005900D92A036B107D9F721E0A0E645
:1000E000B1E001C01D92A538B207E1F710E0CDE5FF
:1000F000D0E004C02197FE010E94A207CC35D107B1
:10010000C9F70E9490030C94A8070C94000090E09B
:10011000FC01EC55FF4F249180579F4FFC018491C7
:10012000882399F090E0880F991FFC01EA57FF4F50
:10013000A591B491FC01E458FF4F859194918FB73C
:10014000F894EC91E22BEC938FBF0895AF92BF929D
:10015000CF92DF92EF92FF920F931F93CF93DF9393
:100160006C017B018B01040F151FEB015E01AE18C2
:10017000BF08C017D10759F06991D601ED91FC91E4
:100180000190F081E02DC6010995892B79F7C50111
:10019000DF91CF911F910F91FF90EF90DF90CF9063
:1001A000BF90AF90089590E0FC01E859FF4F249173
:1001B000FC01EC55FF4F3491FC01E057FF4FE491F7
:1001C000EE23C9F0222339F0233001F1A8F42130C5
:1001D00019F1223029F1F0E0EE0FFF1FE458FF4F34
:1001E000A591B4918FB7F894EC91611126C0309528
:1001F0003E233C938FBF08952730A9F02830C9F0E3
:10020000243049F7809180008F7D03C08091800069
:100210008F7780938000DFCF84B58F7784BDDBCF6D
:1002200084B58F7DFBCF8091B0008F778093B00035
:10023000D2CF8091B0008F7DF9CF3E2BDACF3FB780
:10024000F8948091650190916601A0916701B09149
:10025000680126B5A89B05C02F3F19F00196A11D86
:10026000B11D3FBFBA2FA92F982F8827BC01CD0100
:10027000620F711D811D911D42E0660F771F881F5F
:10028000991F4A95D1F708958F929F92AF92BF928E
:10029000CF92DF92EF92FF924B015C010E941F010F
:1002A0006B017C010E941F016C197D098E099F0959
:1002B000683E734081059105A8F321E0821A9108F8
:1002C000A108B10888EEC80E83E0D81EE11CF11C1D
:1002D00081149104A104B10429F7FF90EF90DF90FD
:1002E000CF90BF90AF909F908F900895089590E029
:1002F00080E00895FC0101900020E9F73197AF01FB
:10030000481B590BBC018DE691E00C94A6008F921E
:100310009F92AF92BF920F931F93CF93DF93CDB76E
:10032000DEB7A1970FB6F894DEBF0FBECDBF19A2FE
:10033000423008F44AE08E010F5D1F4F842E912C4D
:10034000B12CA12CA50194010E948007E62FB901D0
:10035000CA01EA30F4F4E05DD801EE938D01232B5D
:10036000242B252B79F790E080E0109719F0CD0130
:100370000E947A01A1960FB6F894DEBF0FBECDBFE2
:10038000DF91CF911F910F91BF90AF909F908F9071
:100390000895E95CE1CFCF93DF93EC0160E08E81BB
:1003A0000E94D30061E08E810E94D30060E08E81C4
:1003B0000E94D3008BE891E00197F1F7DF91CF9194
:1003C0000895CF92DF92EF92FF920F931F93CF93F6
:1003D000DF936C017C0187E0E80EF11CD0E0C0E007
:1003E000062F10E0B8010C2E02C0759567950A948F
:1003F000E2F76170F70181917F010E94D30021969D
:10040000C430D10579F7C601DF91CF911F910F91CB
:10041000FF90EF90DF90CF900C94CB01CF92DF92C2
:10042000EF92FF920F931F93CF93DF93EC01F62E81
:10043000642F8C810E94D3008D818F3F19F060E082
:100440000E94D3000F2D10E08F8584FF25C06E0120
:1004500087E0C80ED11CF12CE12CB8010E2C02C093
:10046000759567950A94E2F76170F60181916F01C5
:100470000E94D300FFEFEF1AFF0A88E0E816F104AC
:1004800061F7CE01DF91CF911F910F91FF90EF9017
:10049000DF90CF900C94CB01B80184E075956795FF
:1004A0008A95E1F7CE010E94E1016F2DCE01DF9127
:1004B000CF911F910F91FF90EF90DF90CF900C9410
:1004C000E10140E0682F8DE691E00C940E02CF939D
:1004D000DF93823029F490917C01986090937C01A5
:1004E000809380011092810180E48093820180E1F9
:1004F0008093830180E580938401809171010E9443
:100500008700809172018F3F11F00E9487008091D7
:1005100073010E948700CDE6D1E09E012D56314047
:1005200080917C0184FD0AC084E090E02196281728
:1005300039073CF48E810E948700EFCF88E090E07D
:10054000F5CF8BE39DE00197F1F760E080917101B9
:100550000E94D30060E0809173010E94D3008091DB
:1005600072018F3F19F060E00E94D30080917C01FE
:1005700084FD39C063E08DE691E00E94E101CBE4A7
:10058000D6E4CE010197F1F763E08DE691E00E9499
:10059000E1012197F1F763E08DE691E00E94E1012E
:1005A00083E592E00197F1F762E08DE691E00E9429
:1005B000E10180917C0180620E94610284E080936D
:1005C0007D018CE00E94610281E00E9461028BE368
:1005D0009FE10197F1F782E080937E0186E0DF9151
:1005E000CF910C94610280620E9461028BE496E4D8
:1005F0000197F1F780917C0180620E94610283E59E
:1006000092E00197F1F780917C0180620E94610283
:10061000D0CF90918001891710F08FEF890FE82FCC
:10062000F0E0E359FE4F848980680C94610241E058
:100630000E940E0281E090E00895CF92DF92EF9247
:10064000FF926C01990FEE08FF08F7FE16C041E01B
:100650006DE28DE691E00E940E0266277727CB01BE
:100660006C197D098E099F094AE00E948701019655
:10067000FF90EF90DF90CF9008954AE0C701B60158
:10068000FF90EF90DF90CF900C9487011F920F9214
:100690000FB60F9211242F933F938F939F93AF9395
:1006A000BF938091610190916201A0916301B0912B
:1006B00064013091600123E0230F2D3758F5019636
:1006C000A11DB11D2093600180936101909362018F
:1006D000A0936301B09364018091650190916601DC
:1006E000A0916701B09168010196A11DB11D809391
:1006F000650190936601A0936701B0936801BF9173
:10070000AF919F918F913F912F910F900FBE0F90BE
:100710001F90189526E8230F0296A11DB11DD2CF78
:10072000CF93DF9300D000D0CDB7DEB7789484B5F7
:10073000826084BD84B5816084BD85B5826085BDDD
:1007400085B5816085BD80916E00816080936E006B
:10075000109281008091810082608093810080915D
:10076000810081608093810080918000816080930E
:1007700080008091B10084608093B1008091B000CE
:1007800081608093B00080917A00846080937A00C9
:1007900080917A00826080937A0080917A008160F3
:1007A00080937A0080917A00806880937A0010921A
:1007B000C10082E00E94670210E410937C008091E7
:1007C0007A00806480937A0080917A0086FDFCCF65
:1007D0008091780060917900762F682F072E000CA9
:1007E000880B990B0E94590620E030E040E85AE35C
:1007F0000E940E0720E030E44CE955E40E940E0709
:1008000020E030E44CE155E40E943D0520E030E07A
:1008100044E852E40E94AF056B017C01C09269017B
:10082000D0926A01E0926B01F0926C0120E030E01E
:1008300040EC51E40E940E070E9421064B01072E56
:10084000000C880B990B0E945906A70196010E9483
:100850000E07A70196010E940E070E9421066983D8
:100860007A838B839C838CE091E00E947A01C09014
:100870006901D0906A01E0906B01F0906C01A701D2
:100880009601C701B6010E947B07882309F443C083
:1008900087E191E00E947A0183E291E00E947A016F
:1008A00081E00E94090386E291E00E947A01C4017E
:1008B0000E941D0381E391E00E947A0180E00E9482
:1008C000090368EE73E080E090E00E94440184E355
:1008D00091E00E947A0189819A810E941D038DE333
:1008E00091E00E947A0181E00E9409038AE491E08C
:1008F0000E947A0180E00E9409036CED75E080E0BF
:1009000090E00E94440180E090E0892B09F455CFEB
:100910000E94000052CF26013701E89477F82FEFAC
:100920003FEF4FE75FE7C301B2010E947B078111F0
:100930000DC02FEF3FEF4FE75FE7C301B2010E9409
:10094000AA0518161CF48BE191E0A4CF2FEF3FEF1E
:100950004FE75FE4C701B6010E94090718161CF4AF
:100960008FE191E097CF2FEF3FEF4FE75FECC701AB
:10097000B6010E94AA0587FDF3CF20E030E0A9016F
:10098000C701B6010E94AA0587FF0AC041E06DE2D7
:100990008DE691E00E940E02F7FAF094F7F8F094D9
:1009A0002AE037ED43EA5BE3C701B6010E943E054A
:1009B0002B013C010E9428066B017C010E94570616
:1009C0009B01AC01C301B2010E943D052B013C011A
:1009D0004AE0C701B6010E94870141E06EE28DE660
:1009E00091E00E940E0220E030E040E251E4C301B9
:1009F000B2010E940E072B013C010E9428066B01E8
:100A0000F12CE12C4AE0C701B6010E948701C70121
:100A1000B6010E9457069B01AC01C301B2010E94BE
:100A20003D0520E030E040E251E40E940E070E94C4
:100A3000280690E080E04AE00E9487012DCFEDE695
:100A4000F1E01382128284E091E0918380838BE055
:100A500084838FEF85838AE0868385E0878384E0C3
:100A6000808783E0818782E08287138614861586DB
:100A70001686178681E00C9467025058BB27AA2778
:100A80000E9455050C94CF060E94C10638F00E94C2
:100A9000C80620F039F49F3F19F426F40C94BE06E2
:100AA0000EF4E095E7FB0C94B806E92F0E94E006EF
:100AB00058F3BA17620773078407950720F079F493
:100AC000A6F50C9402070EF4E0950B2EBA2FA02D7C
:100AD0000B01B90190010C01CA01A0011124FF27EB
:100AE000591B99F0593F50F4503E68F11A16F040E6
:100AF000A22F232F342F4427585FF3CF46953795E5
:100B00002795A795F0405395C9F77EF41F16BA0BA9
:100B1000620B730B840BBAF09150A1F0FF0FBB1F57
:100B2000661F771F881FC2F70EC0BA0F621F731FA0
:100B3000841F48F4879577956795B795F7959E3FFD
:100B400008F0B0CF9395880F08F09927EE0F97958E
:100B5000879508950E94940608F481E008950E9404
:100B6000C3050C94CF060E94C80658F00E94C10627
:100B700040F029F45F3F29F00C94B80651110C9411
:100B800003070C94BE060E94E00668F39923B1F3B4
:100B9000552391F3951B550BBB27AA2762177307A3
:100BA000840738F09F5F5F4F220F331F441FAA1F37
:100BB000A9F335D00E2E3AF0E0E832D091505040F3
:100BC000E695001CCAF72BD0FE2F29D0660F771FA1
:100BD000881FBB1F261737074807AB07B0E809F087
:100BE000BB0B802DBF01FF2793585F4F3AF09E3F0C
:100BF000510578F00C94B8060C9403075F3FE4F3BA
:100C0000983ED4F3869577956795B795F7959F5F4E
:100C1000C9F7880F911D9695879597F90895E1E09A
:100C2000660F771F881FBB1F621773078407BA07F9
:100C300020F0621B730B840BBA0BEE1F88F7E09554
:100C400008950E9428066894B1110C940307089532
:100C50000E94E80688F09F5798F0B92F9927B7515E
:100C6000B0F0E1F0660F771F881F991F1AF0BA9550
:100C7000C9F714C0B13091F00E940207B1E00895A5
:100C80000C940207672F782F8827B85F39F0B93F97
:100C9000CCF3869577956795B395D9F73EF4909503
:100CA0008095709561957F4F8F4F9F4F0895E89481
:100CB00009C097FB3EF490958095709561957F4FA4
:100CC0008F4F9F4F9923A9F0F92F96E9BB27939552
:100CD000F695879577956795B795F111F8CFFAF462
:100CE000BB0F11F460FF1BC06F5F7F4F8F4F9F4F93
:100CF00016C0882311F096E911C0772321F09EE8F1
:100D0000872F762F05C0662371F096E8862F70E056
:100D100060E02AF09A95660F771F881FDAF7880F30
:100D20009695879597F90895990F0008550FAA0B86
:100D3000E0E8FEEF16161706E807F907C0F01216EE
:100D40001306E407F50798F0621B730B840B950BF1
:100D500039F40A2661F0232B242B252B21F4089546
:100D60000A2609F4A140A6958FEF811D811D0895E3
:100D700097F99F6780E870E060E008959FEF80EC4E
:100D8000089500240A9416161706180609060895F1
:100D900000240A9412161306140605060895092E57
:100DA0000394000C11F4882352F0BB0F40F4BF2BC6
:100DB00011F460FF04C06F5F7F4F8F4F9F4F089506
:100DC00057FD9058440F551F59F05F3F71F04795FC
:100DD000880F97FB991F61F09F3F79F087950895E1
:100DE000121613061406551FF2CF4695F1DF08C000
:100DF000161617061806991FF1CF8695710561051D
:100E000008940895E894BB2766277727CB0197F9C4
:100E100008950E94940608F48FEF08950E94210718
:100E20000C94CF060E94C10638F00E94C80620F03C
:100E3000952311F00C94B8060C94BE0611240C9462
:100E400003070E94E00670F3959FC1F3950F50E0F1
:100E5000551F629FF001729FBB27F00DB11D639F6C
:100E6000AA27F00DB11DAA1F649F6627B00DA11D12
:100E7000661F829F2227B00DA11D621F739FB00DB8
:100E8000A11D621F839FA00D611D221F749F332728
:100E9000A00D611D231F849F600D211D822F762FC1
:100EA0006A2F11249F5750409AF0F1F088234AF09E
:100EB000EE0FFF1FBB1F661F771F881F915050400A
:100EC000A9F79E3F510580F00C94B8060C940307D7
:100ED0005F3FE4F3983ED4F3869577956795B79591
:100EE000F795E7959F5FC1F7FE2B880F911D9695AB
:100EF000879597F908950E949406880B990B089599
:100F0000A1E21A2EAA1BBB1BFD010DC0AA1FBB1F0D
:100F1000EE1FFF1FA217B307E407F50720F0A21B7F
:100F2000B30BE40BF50B661F771F881F991F1A94EC
:100F300069F760957095809590959B01AC01BD0116
:100F4000CF010895EE0FFF1F0590F491E02D099455
:100F5000F894FFCF000000001703A6007701760188
:100F600043757272656E74203D20006E616E00697B
:100F70006E66006F766600204100566F6C74616784
:100F800065203D2000205600506F776572203D207F
:100F90000020576174742020202020202000202071
:100FA0002020202020202020202020202020202041
:040FB00020202000DD
:107E0000112484B714BE81FFF0D085E080938100F7
:107E100082E08093C00088E18093C10086E0809377
:107E2000C20080E18093C4008EE0C9D0259A86E02C
:107E300020E33CEF91E0309385002093840096BBD3
:107E4000B09BFECF1D9AA8958150A9F7CC24DD24C4
:107E500088248394B5E0AB2EA1E19A2EF3E0BF2EE7
:107E6000A2D0813461F49FD0082FAFD0023811F036
:107E7000013811F484E001C083E08DD089C08234E0
:107E800011F484E103C0853419F485E0A6D080C0E4
:107E9000853579F488D0E82EFF2485D0082F10E0AE
:107EA000102F00270E291F29000F111F8ED06801E7
:107EB0006FC0863521F484E090D080E0DECF843638
:107EC00009F040C070D06FD0082F6DD080E0C81688
:107ED00080E7D80618F4F601B7BEE895C0E0D1E017
:107EE00062D089930C17E1F7F0E0CF16F0E7DF06D8
:107EF00018F0F601B7BEE89568D007B600FCFDCFD4
:107F0000A601A0E0B1E02C9130E011968C91119780
:107F100090E0982F8827822B932B1296FA010C0160
:107F200087BEE89511244E5F5F4FF1E0A038BF0790
:107F300051F7F601A7BEE89507B600FCFDCF97BE46
:107F4000E89526C08437B1F42ED02DD0F82E2BD052
:107F50003CD0F601EF2C8F010F5F1F4F84911BD097
:107F6000EA94F801C1F70894C11CD11CFA94CF0C13
:107F7000D11C0EC0853739F428D08EE10CD085E9AC
:107F80000AD08FE07ACF813511F488E018D01DD067
:107F900080E101D065CF982F8091C00085FFFCCF94
:107FA0009093C60008958091C00087FFFCCF809118
:107FB000C00084FD01C0A8958091C6000895E0E648
:107FC000F0E098E1908380830895EDDF803219F02E
:107FD00088E0F5DFFFCF84E1DECF1F93182FE3DFCA
:107FE0001150E9F7F2DF1F91089580E0E8DFEE27F6
:047FF000FF270994CA
:027FFE00040479
:00000001FF
